{
  "_format": "hh3-artifact-1",
  "contractName": "Ballot",
  "sourceName": "contracts/Ballot.sol",
  "abi": [
    {
      "inputs": [
        {
          "internalType": "address",
          "name": "_initiator",
          "type": "address"
        },
        {
          "internalType": "string[]",
          "name": "_proposals",
          "type": "string[]"
        }
      ],
      "stateMutability": "nonpayable",
      "type": "constructor"
    },
    {
      "inputs": [
        {
          "internalType": "string",
          "name": "a",
          "type": "string"
        },
        {
          "internalType": "string",
          "name": "b",
          "type": "string"
        }
      ],
      "name": "compareStrings",
      "outputs": [
        {
          "internalType": "bool",
          "name": "",
          "type": "bool"
        }
      ],
      "stateMutability": "pure",
      "type": "function"
    },
    {
      "inputs": [],
      "name": "endVote",
      "outputs": [],
      "stateMutability": "nonpayable",
      "type": "function"
    },
    {
      "inputs": [],
      "name": "initiator",
      "outputs": [
        {
          "internalType": "address",
          "name": "",
          "type": "address"
        }
      ],
      "stateMutability": "view",
      "type": "function"
    },
    {
      "inputs": [
        {
          "internalType": "uint256",
          "name": "",
          "type": "uint256"
        }
      ],
      "name": "proposals",
      "outputs": [
        {
          "internalType": "string",
          "name": "",
          "type": "string"
        }
      ],
      "stateMutability": "view",
      "type": "function"
    },
    {
      "inputs": [
        {
          "internalType": "address",
          "name": "voter",
          "type": "address"
        },
        {
          "internalType": "string",
          "name": "proposal",
          "type": "string"
        }
      ],
      "name": "vote",
      "outputs": [],
      "stateMutability": "nonpayable",
      "type": "function"
    }
  ],
  "bytecode": "0x608060405234801561000f575f5ffd5b50604051610f7e380380610f7e83398101604081905261002e916101b5565b5f80546001600160a01b0319166001600160a01b038416179055805161005b9060019060208401906100b3565b505f5b6001548110156100ab575f60026001838154811061007e5761007e6102fa565b905f5260205f20016040516100939190610346565b9081526040519081900360200190205560010161005e565b5050506104bd565b828054828255905f5260205f209081019282156100f7579160200282015b828111156100f757825182906100e79082610403565b50916020019190600101906100d1565b50610103929150610107565b5090565b80821115610103575f61011a8282610123565b50600101610107565b50805461012f9061030e565b5f825580601f1061013e575050565b601f0160209004905f5260205f209081019061015a919061015d565b50565b5b80821115610103575f815560010161015e565b634e487b7160e01b5f52604160045260245ffd5b604051601f8201601f191681016001600160401b03811182821017156101ad576101ad610171565b604052919050565b5f5f604083850312156101c6575f5ffd5b82516001600160a01b03811681146101dc575f5ffd5b60208401519092506001600160401b038111156101f7575f5ffd5b8301601f81018513610207575f5ffd5b80516001600160401b0381111561022057610220610171565b8060051b61023060208201610185565b9182526020818401810192908101908884111561024b575f5ffd5b6020850192505b838310156102eb5782516001600160401b0381111561026f575f5ffd5b8501603f81018a1361027f575f5ffd5b60208101516001600160401b0381111561029b5761029b610171565b6102ae601f8201601f1916602001610185565b8181526040838301018c10156102c2575f5ffd5b8160408401602083015e5f60208383010152808552505050602082019150602083019250610252565b80955050505050509250929050565b634e487b7160e01b5f52603260045260245ffd5b600181811c9082168061032257607f821691505b60208210810361034057634e487b7160e01b5f52602260045260245ffd5b50919050565b5f5f83546103538161030e565b60018216801561036a576001811461037f576103ac565b60ff19831686528115158202860193506103ac565b865f5260205f205f5b838110156103a457815488820152600190910190602001610388565b505081860193505b509195945050505050565b601f8211156103fe57805f5260205f20601f840160051c810160208510156103dc5750805b601f840160051c820191505b818110156103fb575f81556001016103e8565b50505b505050565b81516001600160401b0381111561041c5761041c610171565b6104308161042a845461030e565b846103b7565b6020601f821160018114610462575f831561044b5750848201515b5f19600385901b1c1916600184901b1784556103fb565b5f84815260208120601f198516915b828110156104915787850151825560209485019460019092019101610471565b50848210156104ae57868401515f19600387901b60f8161c191681555b50505050600190811b01905550565b610ab4806104ca5f395ff3fe608060405234801561000f575f5ffd5b5060043610610055575f3560e01c8063013cf08b146100595780631bf533a4146100825780635c39fcc114610097578063b9223946146100c1578063bed34bba146100c9575b5f5ffd5b61006c610067366004610707565b6100ec565b604051610079919061071e565b60405180910390f35b610095610090366004610753565b610192565b005b5f546100a9906001600160a01b031681565b6040516001600160a01b039091168152602001610079565b6100956102c0565b6100dc6100d736600461087d565b610388565b6040519015158152602001610079565b600181815481106100fb575f80fd5b905f5260205f20015f915090508054610113906108e2565b80601f016020809104026020016040519081016040528092919081815260200182805461013f906108e2565b801561018a5780601f106101615761010080835404028352916020019161018a565b820191905f5260205f20905b81548152906001019060200180831161016d57829003601f168201915b505050505081565b6001600160a01b0383165f9081526003602052604090205460ff16156101f55760405162461bcd60e51b8152602060048201526013602482015272159bdd195c88185b1c9958591e481d9bdd1959606a1b60448201526064015b60405180910390fd5b6101ff82826103e1565b61023c5760405162461bcd60e51b815260206004820152600e60248201526d15dc9bdb99c81c1c9bdc1bdcd85b60921b60448201526064016101ec565b60055460ff16156102885760405162461bcd60e51b8152602060048201526016602482015275159bdd19481a185cc8185b1c9958591e48195b99195960521b60448201526064016101ec565b6002828260405161029a92919061091a565b9081526040519081900360200190208054905f6102b683610929565b9190505550505050565b60055460ff161561030c5760405162461bcd60e51b8152602060048201526016602482015275159bdd19481a185cc8185b1c9958591e48195b99195960521b60448201526064016101ec565b5f546001600160a01b031633146103715760405162461bcd60e51b815260206004820152602360248201527f4f6e6c792074686520696e69746961746f722063616e20656e642074686520766044820152626f746560e81b60648201526084016101ec565b6103796104ee565b6005805460ff19166001179055565b5f8160405160200161039a919061094d565b60405160208183030381529060405280519060200120836040516020016103c1919061094d565b604051602081830303815290604052805190602001201490505b92915050565b5f805b6001548110156104e5576104ce6001828154811061040457610404610963565b905f5260205f20018054610417906108e2565b80601f0160208091040260200160405190810160405280929190818152602001828054610443906108e2565b801561048e5780601f106104655761010080835404028352916020019161048e565b820191905f5260205f20905b81548152906001019060200180831161047157829003601f168201915b505050505085858080601f0160208091040260200160405190810160405280939291908181526020018383808284375f9201919091525061038892505050565b156104dd5760019150506103db565b6001016103e4565b505f9392505050565b5f805b600154811015610645575f6001828154811061050f5761050f610963565b905f5260205f20018054610522906108e2565b80601f016020809104026020016040519081016040528092919081815260200182805461054e906108e2565b80156105995780601f1061057057610100808354040283529160200191610599565b820191905f5260205f20905b81548152906001019060200180831161057c57829003601f168201915b505050505090505f6002826040516105b1919061094d565b9081526020016040518091039020549050805f036105d057505061063d565b83810361061457600480546001810182555f919091527f8a35acfbc15ff81a39ae7d344fd709f28e8600b4aa8c65c6b64bfe7fe36bd19b0161061283826109c3565b505b8381111561063a576040805160208101909152828152610638906004906001610649565b505b50505b6001016104f1565b5050565b828054828255905f5260205f2090810192821561068d579160200282015b8281111561068d578251829061067d90826109c3565b5091602001919060010190610667565b5061069992915061069d565b5090565b80821115610699575f6106b082826106b9565b5060010161069d565b5080546106c5906108e2565b5f825580601f106106d4575050565b601f0160209004905f5260205f20908101906106f091906106f3565b50565b5b80821115610699575f81556001016106f4565b5f60208284031215610717575f5ffd5b5035919050565b602081525f82518060208401528060208501604085015e5f604082850101526040601f19601f83011684010191505092915050565b5f5f5f60408486031215610765575f5ffd5b83356001600160a01b038116811461077b575f5ffd5b9250602084013567ffffffffffffffff811115610796575f5ffd5b8401601f810186136107a6575f5ffd5b803567ffffffffffffffff8111156107bc575f5ffd5b8660208284010111156107cd575f5ffd5b939660209190910195509293505050565b634e487b7160e01b5f52604160045260245ffd5b5f82601f830112610801575f5ffd5b813567ffffffffffffffff81111561081b5761081b6107de565b604051601f8201601f19908116603f0116810167ffffffffffffffff8111828210171561084a5761084a6107de565b604052818152838201602001851015610861575f5ffd5b816020850160208301375f918101602001919091529392505050565b5f5f6040838503121561088e575f5ffd5b823567ffffffffffffffff8111156108a4575f5ffd5b6108b0858286016107f2565b925050602083013567ffffffffffffffff8111156108cc575f5ffd5b6108d8858286016107f2565b9150509250929050565b600181811c908216806108f657607f821691505b60208210810361091457634e487b7160e01b5f52602260045260245ffd5b50919050565b818382375f9101908152919050565b5f6001820161094657634e487b7160e01b5f52601160045260245ffd5b5060010190565b5f82518060208501845e5f920191825250919050565b634e487b7160e01b5f52603260045260245ffd5b601f8211156109be57805f5260205f20601f840160051c8101602085101561099c5750805b601f840160051c820191505b818110156109bb575f81556001016109a8565b50505b505050565b815167ffffffffffffffff8111156109dd576109dd6107de565b6109f1816109eb84546108e2565b84610977565b6020601f821160018114610a23575f8315610a0c5750848201515b5f19600385901b1c1916600184901b1784556109bb565b5f84815260208120601f198516915b82811015610a525787850151825560209485019460019092019101610a32565b5084821015610a6f57868401515f19600387901b60f8161c191681555b50505050600190811b0190555056fea2646970667358221220d3836fae10f283f3edef13f577ab2ab8b5d4dfa07d67dbc9771162112c200cfc64736f6c634300081c0033",
  "linkReferences": {},
  "deployedLinkReferences": {},
  "immutableReferences": {},
  "inputSourceName": "project/contracts/Ballot.sol",
  "buildInfoId": "solc-0_8_28-00fd428e99adedcc4752030837cc1cf3c558e8b5"
}